:10000000E5C700000C940508FEC70000FCC700000F
:10001000FAC70000F8C70000F6C70000F4C70000E8
:10002000F2C70000F0C700000C94AB1DECC7000045
:10003000EAC70000E8C70000E6C70000E4C7000008
:10004000E2C70000E0C70000DEC70000DCC7000018
:10005000DAC70000D8C70000D6C70000D4C7000028
:10006000D2C70000D0C70000CEC70000CCC7000038
:10007000CAC700000C94860AC6C70000C4C70000A7
:10008000C2C70000C0C70000BEC70000BCC7000058
:10009000BAC70000B8C70000B6C70000B4C7000068
:1000A000B2C70000B0C70000AEC7000020034C007C
:1000B00055004600410020005700680065006500BB
:1000C0006C00200077004600460042000000260336
:1000D0004C0055004600410020004A006F007900A6
:1000E00073007400690063006B0020007700460015
:1000F00046004200000018034400650061006E00E5
:100100002000430061006D00650072006100000086
:100110000403090409026600030100C03209040057
:10012000000203000000092111010001224405071B
:1001300005020340000107058103400001080B018F
:10014000020202010009040100010202010005246B
:100150000010010424020605240601020705850398
:100160000800FF09040200020A000000070504025B
:100170001000010705830210000112011001EF02B7
:100180000108EB03562001000102000112011001D9
:10019000EF020108EB034E200100010200010501FE
:1001A0000904A10185010904A100093009310932BE
:1001B00016000026FF03350046FF039503751081E6
:1001C0000209351500253F3500452E95017506813C
:1001D0000275029501810165000933093415002576
:1001E000FF45FF7508750895028102C00936158024
:1001F000257F45FF750895018102050209BB1500A1
:10020000253F453F75089501810205091901290817
:10021000150025014501750195088102190929106C
:1002200075019508810205010939950175041500CC
:100230002507463B016514814275049501810155EE
:10024000006500050F0992A1028502099F09A00916
:10025000A409A509A61500250135004501750195DC
:100260000581029503810309941500250135004598
:1002700001750195018102092215012528350145E5
:1002800028750795018102C00921A1028501092273
:100290001501252835014528750895019102092584
:1002A000A102092609270930093109320933093425
:1002B00009400941094209430928250C1501350166
:1002C000450C750895019100C00950095409511554
:1002D0000026FF7F350046FF7F66031055FD751031
:1002E0009503910255006600000952150026FF0093
:1002F000350046102775089501910209531501250F
:1003000008350145087508950191020955A10205B6
:10031000010930093115002501750195029102C0CE
:10032000050F095695019102950591030957A10200
:100330000B01000A000B02000A0066140055FE15AE
:100340000026B400350047A08C0000660000750848
:10035000950291025500660000C0050F6603105516
:10036000FD150026FF7F350046FF7F75109501665D
:1003700000005500C0050F095AA102850209221587
:1003800001252835014528750895019102095B0969
:100390005D150026FF0035004610279502910209E1
:1003A0005C095E66031055FD26FF7F46FF7F7510D2
:1003B000910245006600005500C0095FA102850357
:1003C0000922150125283501452875089501910256
:1003D0000923150025013500450175049501910299
:1003E0000958A1020B01000A000B02000A00750265
:1003F00095029102C01580257F36F0D84610270956
:100400006075089501910236F0D84610270961956C
:10041000019102150026FF003500461027096309E7
:1004200064750895024610279501C0096EA10285E2
:1004300004092215012528350145287508950191E3
:10044000020970150026FF00350046102775089533
:10045000019102096F1580257F36F0D84610279547
:10046000019102097166140055FE150026FF003542
:100470000047A08C00009102097226FF7F46FF7F93
:1004800066031055FD751095019102660000550038
:10049000C00973A1028505092215012528350145EA
:1004A0002875089501910209701601FF26FF003694
:1004B000F0D8461027751095019102C00974A10269
:1004C000850609221501252835014528750895015D
:1004D0009102097509761580257F36F0D8461027D8
:1004E000750895029102C00968A1028507092215C5
:1004F00001252835014528750895019102096C15DB
:100500000026102735004610277510950191020925
:10051000691581257F350046FF007508950C92020C
:1005200001C00966A102850805010930093115815C
:10053000257F350046FF00750895029102C0050F22
:100540000977A102850A09221501252835014528C8
:100550007508950191020978A1020979097A097B48
:1005600015012503750895019100C0097C15002629
:10057000FF00350046FF009102C00990A102850BE3
:100580000922252815013501452875089501910294
:10059000C00996A102850C099709980999099A0939
:1005A0009B099C15012506750895019100C0097DE0
:1005B000A102850D097E150026FF00350046102793
:1005C000750895019102C0096BA102850E092215DB
:1005D00001252835014528750895019102096D15F9
:1005E0000026FF00350046FF0075089501910209BD
:1005F0005166031055FD150026FF7F350046FF7F2D
:100600007510950191025500660000C009ABA1026A
:1006100085050925A1020926092709300931093272
:100620000933093409400941094209430928250CC5
:1006300015013501450C75089501B100C00501098A
:100640003B150026FF01350046FF01750A9501B1F3
:10065000027506B101C0050F0989A10285060922AC
:10066000252815013501452875089501B102098B2A
:10067000A102098C098D098E250315013501450359
:1006800075089501B100C009AC150027FFFF0000F7
:10069000350047FFFF000075109501B100C0097FCC
:1006A000A10285070980751095011500350027FF07
:1006B000FF000047FFFF0000B102098326FF00464C
:1006C000FF0075089501B10209A909AA75019502F3
:1006D0001500250135004501B10275069501B103EC
:1006E000C0C005010904A10185010901A10009306B
:1006F000093109321600FE26FF01350046FF039539
:10070000037510810209351500253F3500452E95EA
:1007100001750681027502950181016500093309A1
:1007200034150025FF45FF7508750895028102C044
:1007300009361580257F45FF750895018102050260
:1007400009BB15C0253F457F750895018102050944
:100750001901290815002501450175019508810237
:1007600019092910750195088102050109399501BA
:10077000750415002507463B0165148142750495F3
:1007800001810155006500050F0992A1028502094A
:100790009F09A009A409A509A61500250135004552
:1007A00001750195058102950381030994150025C2
:1007B00001350045017501950181020922150125C8
:1007C0002835014528750795018102C00921A1023C
:1007D000850109221501252835014528750895014F
:1007E00091020925A1020926092709300931093298
:1007F0000933093409400941094209430928250CF4
:1008000015013501450C750895019100C009500985
:10081000540951150026FF7F350046FF7F660310FF
:1008200055FD75109503910255006600000952159B
:100830000026FF0035004610277508950191020932
:1008400053150125083501450875089501910209E0
:1008500055A10205010930093115002501750195E1
:10086000029102C0050F0956950191029505910369
:100870000957A1020B01000A000B02000A006614CE
:100880000055FE150026B400350047A08C00006618
:1008900000007508950291025500660000C0050F22
:1008A00066031055FD150026FF7F350046FF7F7556
:1008B0001095016600005500C0050F095AA1028578
:1008C0000209221501252835014528750895019151
:1008D00002095B095D150026FF00350046102795CB
:1008E000029102095C095E66031055FD26FF7F46F2
:1008F000FF7F7510910245006600005500C0095F3A
:10090000A10285030922150125283501452875080E
:100910009501910209231500250135004501750453
:10092000950191020958A1020B01000A000B020077
:100930000A00750295029102C01580257F36F0D815
:10094000461027096075089501910236F0D84610C7
:1009500027096195019102150026FF003500461018
:100960002709630964750895024610279501C00997
:100970006EA1028504092215012528350145287537
:1009800008950191020970150026FF0035004610F8
:1009900027750895019102096F1580257F36F0D8DB
:1009A00046102795019102097166140055FE150045
:1009B00026FF00350047A08C00009102097226FF37
:1009C0007F46FF7F66031055FD7510950191026605
:1009D00000005500C00973A10285050922150125F3
:1009E000283501452875089501910209701601FF07
:1009F00026FF0036F0D8461027751095019102C0E9
:100A00000974A1028506092215012528350145280A
:100A1000750895019102097509761580257F36F0D4
:100A2000D8461027750895029102C00968A1028571
:100A300007092215012528350145287508950191DA
:100A400002096C15002610273500461027751095F1
:100A500001910209691581257F350046FF0075085F
:100A6000950C920201C00966A102850805010930B2
:100A700009311581257F350046FF007508950291E3
:100A800002C0050F0977A102850A09221501252850
:100A9000350145287508950191020978A102097967
:100AA000097A097B15012503750895019100C00994
:100AB0007C150026FF00350046FF009102C009901A
:100AC000A102850B09222528150135014528750845
:100AD00095019102C00996A102850C099709980910
:100AE00099099A099B099C1501250675089501919C
:100AF00000C0097DA102850D097E150026FF003585
:100B000000461027750895019102C0096BA1028566
:100B10000E092215012528350145287508950191F2
:100B200002096D150026FF00350046FF0075089587
:100B3000019102095166031055FD150026FF7F350E
:100B40000046FF7F7510950191025500660000C0B8
:100B500009ABA10285050925A1020926092709304B
:100B6000093109320933093409400941094209436D
:100B70000928250C15013501450C75089501B100B2
:100B8000C00501093B150026FF01350046FF017530
:100B90000A9501B1027506B101C0050F0989A102CC
:100BA0008506092225281501350145287508950176
:100BB000B102098BA102098C098D098E250315014B
:100BC0003501450375089501B100C009AC15002732
:100BD000FFFF0000350047FFFF000075109501B1D1
:100BE00000C0097FA10285070980751095011500D5
:100BF000350027FFFF000047FFFF0000B102098317
:100C000026FF0046FF0075089501B10209A909AA4F
:100C1000750195021500250135004501B1027506E3
:100C20009501B103C0C04572726F723A20756E6B48
:100C30006E6F776E20656666656374207479706583
:100C400020746F20656E61626C652F6469736162E8
:100C50006C65002053696E65732064697361626C12
:100C600065640A0020547269616E676C6573206464
:100C7000697361626C65640A0020436F6E7374610E
:100C80006E74732064697361626C65640A0020533A
:100C90007072696E67732064697361626C65640A5F
:100CA00000456666656374733A0A004572726F7236
:100CB0003A20756E6B6E6F776E20636F6D6D616E2F
:100CC00064002C20646174613D00436F6D20203D01
:100CD0003E20436F6D6D616E643D005265636569D2
:100CE00076656420646174613D0045787065637465
:100CF000696E672064617461206C656E3D00202020
:100D00003D20536574436F6E74726F6C4C696E65F1
:100D100053746174650020203D205365744C696EE6
:100D200065456E636F64696E670020203D204765EE
:100D3000744C696E65456E636F64696E67004374D9
:100D4000726C5265712876616C2C6964782C7265BE
:100D500071293A0053746F70206D616E75616C3A41
:100D6000000A20206761696E3D000A2020666164E8
:100D70006554696D653D0020206475726174696F0A
:100D80006E3D002028456E61626C6564290A002072
:100D90002844697361626C6564290A0020467265A3
:100DA00065002053656E740020506C6179696E6730
:100DB0000A0020416C6C6F636174656400203D3EE5
:100DC000204D6964693A004465766963652047612E
:100DD000696E3A20004F746865722000426C6F6340
:100DE0006B20467265653A200020556E6B6E6F77FA
:100DF0006E206F7065726174696F6E002053746F3E
:100E00007000205374617274536F6C6F00205374C0
:100E100061727400456666656374204F7065726127
:100E200074696F6E3A004765745265706F72742012
:100E300050494420506F6F6C20466561747572652F
:100E4000002020627574746F6E3D00202072657002
:100E50006561743D002020593D002020583D002050
:100E600020647572613D0020206761696E3D00203D
:100E700020747970653D002020696420203D005376
:100E80006574204566666563743A002C207374614E
:100E90007475733D00437265617465204E657720FB
:100EA000456666656374203D3E2069643D00557368
:100EB0006220203D3E002020656E6420203D002001
:100EC0002073746172743D00202069643D00536595
:100ED000742052616D7020466F7263653A00202065
:100EE0006D61676E69747564653D00202069643DBD
:100EF0000053657420436F6E7374616E7420466F87
:100F00007263653A002020706572696F642020204A
:100F10003D0020207068617365202020203D002066
:100F2000206F66667365742020203D0020206D616F
:100F3000676E69747564653D00202069643D0053E7
:100F4000657420506572696F6469633A002020639C
:100F50006F6566662B3D0020206F66667365743D85
:100F6000002020626C6F636B203D002020696420AC
:100F700020203D0053657420436F6E646974696F6F
:100F80006E3A0020206661646554696D6520203DDD
:100F900000202061747461636B54696D653D0020AD
:100FA000206661646520203D0020206174746163C7
:100FB0006B3D0020206964202020203D0053657493
:100FC00020456E76656C6F70653A000011241FBE77
:100FD000CFEFDAE0DEBFCDBF12E0A0E0B1E0EAE79C
:100FE000F3E402C005900D92AE3BB107D9F727E0BC
:100FF000AEEBB2E001C01D92A83CB207E1F70E943F
:101000000A100C94A3210C9400005F935FB75F93C8
:1010100057EE56BD4F93AF93BF93B6E0A0915C06D9
:1010200050915D06452F539550935D0653B15295EF
:10103000507E477069F04530B9F0423069F0433076
:10104000F1F04630E9F04130E1F04430D9F01BC016
:10105000529556955E931AC0550F4C91542B5C9344
:101060005527551F5E9312C057FB550F550F4C91D6
:10107000542B5C935527551F51F95E9307C0569525
:101080005695569556954C91542B5C93A0935C06BF
:10109000BF91AF914F915F915FBF5F911895DC0158
:1010A00054E0A50F5C91509550FB5095A1503C9198
:1010B000369557955093B30742E0340F33705C91E7
:1010C000A1504C91469557955C7F532B5093B40794
:1010D00038E0430F4F70A2505C91550F550F50519F
:1010E000507F542B5093B5073C9142E0340F33703E
:1010F000A3954C91407F342B3295330F330F54E03E
:10110000A50F5C9150955695379556953795309328
:10111000B60756F9A3504C9145FB57F95093B707C2
:10112000A1505C9138E0530F5F70440F551F440F7E
:10113000551F5093B8070895DC0145E0A40F5C915A
:10114000A395A3953C913873330F3295550F36957F
:1011500057954EEF340F33705093B3074C9147704F
:10116000A3505C91550F469557952EEF420F437053
:10117000550F441F550F441F532B5093B407342F62
:10118000A2505C91A3954C914871550F440F429524
:1011900046955795409540FB5295452F407F432BF0
:1011A0004093B5075F7054F9352FA3505C91507789
:1011B00047E0A40F4C9146FB57F9505157FB550F90
:1011C000532B5093B607332730F9AA955C91A3505F
:1011D0004C9146FB57F950954427550F441F532B0C
:1011E0005093B707342FA2505C91A395A3954C91CF
:1011F0004770550F469557952EEF420F437057FB9A
:10120000550F532B5093B807440F40F94093B9073B
:101210000895482F362F8827F894E09AE89A2227D5
:10122000189B2FEF51E053BD5CE956BDA89A20935F
:101230005D065CE550935C0678942498259850E010
:101240005A95F1F7249A259A50915D06521719F490
:10125000A89BFACF089550915D06521B250F2317C6
:1012600028F444238AF7450F7AF3E7CF839508954E
:10127000D0DF882371F050915D06563151F4F89417
:10128000552750935D0650915C06539550935C062C
:10129000789408950E94C61B86E080935E0683E0E2
:1012A0008093810085E085BD80915E06815030F598
:1012B00088EE93E00E94EE110E94DD1210BA809138
:1012C0007A00876080937A0080917C0080648093AC
:1012D0007C0080917C00806280937C0080917A0009
:1012E000806880937A0080917A00886080937A0089
:1012F00080917A00806480937A000895E82FF0E06E
:10130000DF01AD54B84F9C91E05AF94F2081291765
:1013100069F29083CBCF81E090E00895CF93DF9383
:10132000EB0183E085BD0E94041C8091BE028823EE
:1013300081F11092BE028091C602843009F466C029
:1013400040F4882369F0813009F45AC01092C60233
:101350000EC08530D9F7809179008093CA02F6CF0C
:10136000809179008093C70281E08093C6028091CA
:101370007C00887F80937C008091C60290917C00E5
:101380008770892B80937C0080917A0080648093A1
:101390007A0081E088838091BA078430E9F58091F2
:1013A000B50724E0829FC00111242091B607229541
:1013B000269526952370822B80959D878C8780911A
:1013C000B70790E0982F8827882793702091B80757
:1013D000820F911D9A8389838091B70744E0849F8F
:1013E000C0011124807F93709C838B838091B6070A
:1013F00080958F738B8781E090E0DF91CF91089586
:10140000809179008093C80284E0AFCF8091790009
:101410008093C90285E0A9CF8091B40790E0982F0E
:101420008827882793702091B307820F911D9A8394
:1014300089832091B40721FF03C09C6F9A8389831D
:101440003091B5078091B4078695869590E4399FD1
:10145000A0011124407C5370840F952F911D33FD02
:1014600043C09C838B838091B7072091B60786FF8A
:101470003DC08F7B8093B70794E0299FA001112482
:101480004427537090E0982F8827990F990F840F65
:10149000951F9D878C8732953F703E872F73205212
:1014A0002F832091B807822F880F8E779091B707EE
:1014B000991F9927991F890F25FD26C08B871E82AA
:1014C0001D828091CA029091C902891B990B97FDD8
:1014D00001969595879580588A878091C80288875C
:1014E0008091C702898787CF9C6FBBCF44E0849FE0
:1014F000C00111248C7F9170422F429546954695EC
:101500004370840F911DC5CF806CD8CF8F9381E03D
:101510008093BE028F911895CF92DF92EF92FF9247
:101520000F931F93CF93DF9300D0CDB7DEB76A83BD
:101530007A01292F30E089832430310509F48CC0E9
:10154000A8F406E610E054E1C52E51E0D52E223075
:101550003105A9F12330310509F44CC021303105A2
:1015600001F110E000E0D12CC12C29C009E010E00D
:1015700046E2C42E41E0D42E2132310501F122325F
:10158000310579F78091BA0704E415E072EEC72EB1
:1015900076E0D72E843099F42EE9C22E21E0D22EA7
:1015A0000EC08091BA0702E110E03AE7C32E31E0A5
:1015B000D32E843021F08CE8C82E81E0D82E61E053
:1015C00070E0CE0101960E94571C61E070E0CE01F0
:1015D00002960E945F1CF701D182C082C8010F9061
:1015E0000F90DF91CF911F910F91FF90EF90DF90BF
:1015F000CF900895813071F08230B1F08111B1CF78
:10160000E0E1F1E0E4910E2F10E0B0E1CB2EB1E08B
:10161000DB2ED5CFE6EFF0E0E4910E2F10E0A6EF41
:10162000CA2EA0E0DA2ECBCF8091BA07843051F4D5
:10163000ECEAF0E0E4910E2F10E0FCEACF2EF0E0AF
:10164000DF2EBDCFEEECF0E0E4910E2F10E0EEECDB
:10165000CE2EE0E0DE2EB3CF8A8109E010E09DE1DE
:10166000C92E91E0D92E882309F4A9CF63E6C62EAE
:1016700061E0D62E813009F0A2CF85E4C82E81E04A
:10168000D82E9DCF9BB19F7B982B9BB9089584B793
:10169000877F84BF0FB6F894A89580916000886119
:1016A00080936000109260000FBE80E890E00FB65B
:1016B000F89480936100909361000FBE569A5E98F3
:1016C000E9DD0C94931D80E4DDCF80E0DBCFCF9388
:1016D000DF9342E361EC81E00E94D01CC82F42E31B
:1016E00060EC82E00E94D01CD82F42E161E883E0E8
:1016F0000E94D01CCD23C82342E160E884E00E9410
:10170000D01CC82342E061EC85E00E94D01C1092FE
:101710000001109201011092020110920301CC23EA
:1017200011F0811104C080E4DF91CF91ABCF80E054
:10173000FBCFEF92FF921F93CF93DF93CDB7DEB72E
:1017400064970FB6F894DEBF0FBECDBF8091C4077B
:101750009091C507F12CE12C019721F480E0E82E4F
:1017600081E0F82E1091FC01812F0E94C71C882374
:10177000B1F08EE39DE00E94481C62E070E082ECD4
:1017800097E00E94571C62E070E084EC97E00E94B2
:10179000571C61E070E081EC97E00E945F1C809133
:1017A000C107803209F4BFC088F4813049F1893023
:1017B00009F45FC064960FB6F894DEBF0FBECDBFCC
:1017C000DF91CF911F91FF90EF900895813209F43E
:1017D0008CC0823279F7812F0E94C71C882321F0A8
:1017E0008EEF9CE00E94481C8091C007813211F767
:1017F0008091E800877F8093E8000E94031DDACF84
:10180000812F0E94C71C882321F080E092E00E9473
:10181000431C8091C007813A69F680E433DF8091F0
:10182000C2079091C307873023E09207B1F4CE013D
:101830000196C2D48091E800877F8093E80065E03C
:1018400070E0CE0101960E940D1F8091E8008B7719
:101850008093E80080E016DFADCFBE016F5F7F4F61
:101860005DDD8091E800877F8093E8006FE070E0A5
:10187000E8CF812F0E94C71C882321F08AE092E0E4
:101880000E94431C8091C007813209F093CF80E40D
:10189000F9DE8091E800877F8093E8006091C607B9
:1018A0007091C707CE0101960E94631F0E94031D1D
:1018B0008091C2079091C3078530934059F68FEC11
:1018C00097E00197F1F700C00000BE01605F7F4F15
:1018D000CE01019690D58091E800877F8093E80043
:1018E00065E070E0CE014096AECF812F0E94C71C0C
:1018F000882321F08AE29DE00E94481C8091C00765
:10190000813A09F057CF8091E800877F8093E80003
:1019100067E070E0C7010E940D1F8091E8008B779F
:101920008093E80047CF812F0E94C71C882321F0B5
:1019300086E19DE00E94481C8091C007813209F039
:1019400039CF8091E800877F8093E80067E070E0FE
:10195000C7010E94631F8091E8008E77E1CF4F920C
:101960005F926F927F928F929F92AF92BF92CF922F
:10197000DF92EF92FF920F931F93CF93DF93CDB738
:10198000DEB7C454D1090FB6F894DEBF0FBECDBF89
:101990008091BF07843009F006C181E08093E9009F
:1019A0008091E80080FFE8C0BE016F5F7F4F8091AB
:1019B0000901B4DC8091CB029091CC02892BA1F477
:1019C0003C85288585E990E0FC01E559F94F308395
:1019D000FC01EF5FF84F20830197B0F781E090E0C2
:1019E0009093CC028093CB0245E950E0412C512CDE
:1019F000320160E070E0CB0125961CAE1DAE1EAE3C
:101A00001FAE2597FA01E559F94FA081CA2ED12CB6
:101A1000F12CE12C6C0D7D1D8E1D9F1DFA01EF5FD9
:101A2000F84FE0818E2E0E2E000C9908AA08BB08F4
:101A300025960CAD1DAD2EAD3FAD2597080D191D9A
:101A40002A1D3B1D25960CAF1DAF2EAF3FAF25972E
:101A50004B34510574F04C0C5D1C6E1C7F1CA7FDB3
:101A60000AC01FEF511A610A710A7F5F8F4F9F4FA3
:101A700002C0A7FFFACFE03E80F025960CAD1DAD69
:101A80002EAD3FAD2597005C1F4F2F4F3F4F259642
:101A90000CAF1DAF2EAF3FAF25974150510908F055
:101AA000B1CF26E9822E912CA12CB12CA501940155
:101AB0000E945F2169017A01C301B2012BE430E089
:101AC00040E050E00E945F21C20ED31EE41EF51ECE
:101AD000F594E794D794C79425966CAD7DAD8EAD03
:101AE0009FAD2597A50194010E945F219C8580915F
:101AF0006B06891720F430916C06831740F0981715
:101B000020F430916C06381710F090936B0698858E
:101B10008091010789173CF43091020783174CF03C
:101B20009093010706C09817DCF730910207381729
:101B3000BCF7CC86288750E040E06FE070E0CE0133
:101B400001960E94711E8091E8008E778093E800D4
:101B5000E0E0F7E006E917E04BE656E0DF018E91A2
:101B60009D018083F8016291CF01D8016C93F90146
:101B70008C014217530791F782E08093E90080912E
:101B8000E80082FF10C080E47DDD10E09091F3005A
:101B90008091F200892B11F01034E8F08091E80078
:101BA0008B778093E800CC5BDF4F0FB6F894DEBFF5
:101BB0000FBECDBFDF91CF911F910F91FF90EF909E
:101BC000DF90CF90BF90AF909F908F907F906F905D
:101BD0005F904F90089550E040E061E070E0CE01EA
:101BE00001960E94BF1E8530B1F31F5FE981E1506D
:101BF000FF0BEE0FFF1FE65FFE4FC080D180760126
:101C0000B1E0EB1AF108C701810F911D80349105F5
:101C1000B8F080E037DDEFEFF1EE04E0E150F040A6
:101C20000040E1F700C0000080E42CDD1FEF21EE52
:101C300034E0115020403040E1F700C00000E9CF0F
:101C400050E040E0B701CE0102960E94BF1E8530F1
:101C5000B9F31E0DB601CE01019620D68FE99FE0A3
:101C60000197F1F700C0000091CF982F80ED890F08
:101C70008A3070F08FE9890F863018F489EA890F6D
:101C800008958FEB890F863010F489ECF8CF8FEF31
:101C90000895CF93DF930F92CDB7DEB781EA9CE032
:101CA0000E94481C1982CE01019672D6811124C06F
:101CB00080919B07882321F08EE89CE00E94481CBD
:101CC00080919C07882321F089E79CE00E94481CB2
:101CD00080919D07882321F084E69CE00E94481CA7
:101CE00080919E07882321F083E59CE00E94481C98
:101CF0000F90DF91CF9108950E94CF1CD4CF8436EE
:101D000039F4809108016095682360930801089573
:101D100080910801682BF9CF982F862F983009F40D
:101D2000ACC6913009F4AFC6953009F4B2C6923012
:101D300009F4B5C686E29CE00C94521CEF92FF9227
:101D40000F931F93CF93DF930F92CDB7DEB78983A5
:101D50008B017A018AEC9CE00E94481C61E070E0F3
:101D6000CE0101960E94571C82EC9CE00E94481C08
:101D7000B701C8010E945F1C8981982F9F7D943410
:101D800059F4F8016081BBDF0F90DF91CF911F9173
:101D90000F91FF90EF9008958D3621F4B701C8019F
:101DA00047D4F2CF853721F4B701C80177D5ECCFFE
:101DB00060E0843719F0843529F461E0F80180810E
:101DC000ABDFE2CF60E0853619F0853429F461E0BD
:101DD000F80180816AD6D8CF8BEA9CE00E94521C21
:101DE000D3CF1F93CF93DF930F92CDB7DEB7182FCA
:101DF00069838091FC010E94C71C882351F08BED00
:101E00009CE00E94481C61E070E0CE0101960E94B7
:101E10005F1CE091F602F0E0E253FD4F8981808380
:101E20008091F6028F5F8093F6029091F602809186
:101E3000FA02981758F04091FA0250E06EEC72E006
:101E4000812F7CDF1092F9021092F6020F90DF9141
:101E5000CF911F9108950F931F93CF93DF930F920C
:101E6000CDB7DEB789838091F9021091FC01811111
:101E700020C0812F0E94C71C882331F061E070E0F0
:101E8000CE0101960E945F1C89819FED980F9A35C3
:101E900018F48C3639F4FDDE0F90DF91CF911F914D
:101EA0000F9108958093F9021092F8021092FA02AD
:101EB000F3CF812F0E94C71C882331F061E070E0CE
:101EC000CE0101960E94571C0091F8028981CDDE57
:101ED00001110AC08F3F01F391E09093F8028295BF
:101EE000807F8093FA02D8CF9091F8029130D1F49C
:101EF0008F3F91F292E09093F8029091FA02890F4D
:101F00008093FA02812F0E94C71C882329F28AEE4F
:101F10009CE00E94481C61E070E08AEF92E00E9421
:101F20005F1CBACF8F3F09F4B7CF9091F8029F5F43
:101F30009093F8029091F80290FF05C08295807FFF
:101F40008093F702A9CF9091F702890F8093F7024F
:101F50006091F7028091F90244DF9ECFEF92FF92E9
:101F60000F931F93CF93DF93CDB7DEB7C058D1093E
:101F70000FB6F894DEBF0FBECDBF1091BF0714306F
:101F800021F50E94CF1C1093E9008091E80082FFA8
:101F90001CC080E477DB10E000E09091F3008091BA
:101FA000F200892B19F000381105E8F08091E80063
:101FB0008B778093E800CE0101967C01080F191FF2
:101FC000E016F10611F580E05DDBC058DF4F0FB67B
:101FD000F894DEBF0FBECDBFDF91CF911F910F915F
:101FE000FF90EF9008950F5F1F4F81E090E08C0FFE
:101FF0009D1F800F911F50E040E061E070E001976D
:102000000E94BF1E853079F3C8CFF70181917F010F
:1020100022DFD6CF3CDB80E035DB78947CD9892B7E
:1020200059F09DDC0E94CF1C99DF0E94CF1C0E94BA
:1020300039210E94CF1CF2CF80E424DB8CE291E0B6
:10204000CDD180E01FDB8CE291E0C8D1E7CF2EE15B
:10205000829FC00111248A5D9E4F90930506809354
:102060000406089580910701843161F18091070190
:1020700091E0980F9093070125E2E09107012E9FD0
:10208000F0011124E550FD4F9081911111C095E2AE
:10209000899F90011124F901E550FD4F91E0908353
:1020A0002B5F3C4F9BE1F90111929A95E9F7089556
:1020B00090910701943158F7909107019F5F909399
:1020C0000701DBCF80E00895853148F495E2899FD0
:1020D000F0011124E550FD4F8081826080830895D6
:1020E0008531C0F4E82FF0E095E2899FD0011124FA
:1020F000A550BD4F9C919D7F9C93E656F84F9581CE
:10210000911108C0E0910406F09105060284F38560
:10211000E02D09940895CF93C1E08C2FE1DFCF5FCC
:10212000C531D9F7CF9108958531A8F495E2899FFB
:10213000F0011124E550FD4F10829091070189179D
:1021400010F480930701E0910406F09105060484E1
:10215000F585E02D0994089582E080930701EBEF67
:10216000F2E089E093E0DF019C011D9221503040B4
:10217000E1F708959C012F3F320751F0C901969570
:1021800087958F77992722273F77822B932B089566
:1021900090E080E00895282F082E000C330B87FF75
:1021A00002C020583048C9010895689FC001112419
:1021B000892F859585950895CF93DF93EC018091C4
:1021C000FC010E94C71C882321F086E29EE00E9449
:1021D000521CC2DF87E088838FEF9FEF9A83898349
:1021E0008AE08B8383E08C83DF91CF910895809187
:1021F000FC010E94C71C882321F084E192E00C942A
:10220000431C08958091FC010E94C71C882321F083
:102210008AE292E00C94431C0895FF920F931F935F
:10222000CF93DF930F92CDB7DEB78C01FC01818194
:102230008983F090FC018F2D0E94C71C882351F0E8
:1022400084E19EE00E94481C61E070E0CE010196AE
:102250000E94571C89818F3F11F48FE78983F80111
:102260008281813019F58F2D0E94C71C882321F0AF
:102270008DE09EE00E94521CF801818125DF89815A
:10228000E82FF0E0E656F84F9581911108C0E091F3
:102290000406F09105060084F185E02D09950F9064
:1022A000DF91CF911F910F91FF900895823069F5D2
:1022B0008F2D0E94C71C882321F082E09EE00E949F
:1022C000521C29DFE981F0E0E656F84F8581811143
:1022D00009C0E0910406F09105060284F385E02D23
:1022E0008FE70995F8018181EFDEE981F0E0E6569C
:1022F000F84F85818111D3CFE0910406F091050656
:102300000084F185E02D8FE7C9CF833069F48F2DEC
:102310000E94C71C882321F08CEF9DE00E94521C74
:10232000F8018181DDDEBBCF8F2D0E94C71C882381
:1023300009F4B5CF89EE9DE00E94521C61E070E087
:10234000C80102960E945F1CAACFCF93DF930F9221
:10235000CDB7DEB7FC01818189838091FC010E94A9
:10236000C71C882351F08CED9DE00E94481C61E061
:1023700070E0CE0101960E945F1C89818F3F71F44D
:10238000EBDEE0910406F09105060484F585E02D6E
:102390008FE709950F90DF91CF910895C5DEFACFB1
:1023A000CF93DF93EC0187EC9DE00E94481C61E035
:1023B00070E0CE010196DF91CF910C945F1C8150AB
:1023C00008F4089590E39A95F1F7F9CF24982598A9
:1023D00085E0F5DF249A259A81E0F1CF9C01215018
:1023E000310908F40895A8958FE99FE00197F1F766
:1023F00000C00000F4CFCF92DF92EF92FF920F93D4
:102400001F93CF93DF937C01EB0186E088832ADE64
:102410008983811135C082E08A838FEF9FEF9C838F
:102420008B838091FC010E94C71C8823B1F085E951
:102430009EE00E94481C61E070E0CE0101960E947F
:10244000571C8BE89EE00E94481C61E070E0CE01C2
:1024500002960E945F1C0E94CF1C25E030E0AE0176
:10246000688185E592E00E94671C85E090E0DF913D
:10247000CF911F910F91FF90EF90DF90CF90AECF53
:1024800091E09A8395E2899F80011124F801E5503B
:10249000FD4F6F018FEF9FE7928381839483838346
:1024A0008FEF8583168287838087F7018181E09192
:1024B0000406F09105060680F781E02D815009950C
:1024C000F801EB5FFC4F8183E0910406F091050673
:1024D0000088F189E02DB601C70109959ECFCF9301
:1024E000DF93EC01898192E0909397079091980790
:1024F00094609093980790919807906190939807B3
:1025000010929907813061F48CE592E00E94431C9F
:10251000809198078E7F80939807DF91CF910895DF
:10252000823041F48EE692E00E94431C809198072D
:102530008460F1CF833081F48FE792E00E94431CE6
:10254000E0910406F09105060480F581E02D80E01D
:10255000099510929907E1CF843099F480E992E0CF
:102560000E94431CE0910406F09105060480F58169
:10257000E02D81E009958BE490E030DFDF91CF9191
:10258000EBCD853031F486E992E0DF91CF910C9468
:10259000431C863019F48CE992E0F7CF807C09F473
:1025A000BCCF85ED9DE00E94481C61E070E0CE014B
:1025B0000196DF91CF910C945F1CEAE9F7E089E185
:1025C000DF011D928A95E9F7539A1092C8008FE1B6
:1025D00090E09093CD008093CC0086E88093CA0071
:1025E00088E08093C9001092CE00EBEFF2E089E022
:1025F00093E0DF019C011D9221503040E1F7E7E9B3
:10260000F7E083E0DF011D928A95E9F782E080938D
:102610000701E0910406F09105060190F081E02D9C
:1026200009949091C80095FFFCCF8093CE00089547
:10263000EF92FF920F931F93CF93DF937C01EB01F7
:1026400080910801882341F08DEB9DE00E94481C99
:10265000BE01C7010E945F1C8701CE0DDF1D0C1754
:102660001D0739F4DF91CF911F910F91FF90EF90EB
:102670000895F80181918F01D4DFF1CFFF920F937C
:102680001F93CF93DF9300D00F92CDB7DEB7082F03
:10269000F92E162FE0910406F09105060280F381D1
:1026A000E02DCE01039609956B8170E0C1DF612FAB
:1026B00070E0802F9F2DBCDF20E01150C0F42195E9
:1026C0002F772A8361E070E0CE010296B1DF87EFB9
:1026D000898361E070E0CE010196AADF0F900F9030
:1026E0000F90DF91CF911F910F91FF900895E02FF0
:1026F000FF2D8191280F0E2FFF2EDFCFCF92DF927B
:10270000EF92FF920F931F93CF93DF93EC01098118
:10271000E02EF12C25E2029F80011124C801855092
:102720009D4F6C018091FC010E94C71C882309F415
:1027300065C08FE79EE00E94481C6EE070E0CE010D
:102740000E945F1C87E79EE00E94481C61E070E0E9
:10275000CE0101960E945F1C8FE69EE00E94481CFD
:1027600061E070E0CE0102960E945F1C87E69EE069
:102770000E94481C61E070E0CE0109960E945F1C37
:102780008FE59EE00E94481C62E070E0CE01039657
:102790000E945F1C8B858823A1F08AE59EE00E9441
:1027A000481C61E070E0CE010C960E945F1C85E53C
:1027B0009EE00E94481C61E070E0CE010D960E94F0
:1027C0005F1C8D819E81892B51F08BE49EE00E94DD
:1027D000481C62E070E0CE0105960E945F1C8A856D
:1027E000882351F081E49EE00E94481C61E070E083
:1027F000CE010A960E945F1C0E94CF1C0B5F1C4FEB
:102800008B819C818F3FEFE79E0709F042C0F80162
:10281000148213828B819C8125E22E9DF0012F9DD5
:10282000F00D1124E550FD4F92838183808182FF5A
:102830000CC0F80163817481E0910406F0910506F3
:102840000684F785E02D89810995E0910406F091D1
:102850000506048CF58DE02DB601CE010995682F93
:1028600085E28E9DE0018F9DD00D1124C550DD4F76
:10287000888182FD05C0C80101DF8881846088836A
:10288000DF91CF911F910F91FF90EF90DF90CF904C
:10289000089570DCF80194838383BCCFCF93DF93DA
:1028A000EC019B015E9AAC016AE071E08EEA9EE069
:1028B0000E94881C6981E881E150EE3038F4F0E034
:1028C000EB55FE4D0C947B21CE0118DF5E98DF9115
:1028D000CF91089585E2689FB001112465507D4F26
:1028E000E0910406F09105060288F389E02DCE01FF
:1028F0000995ECCF85E2689FB001112465507D4FAA
:10290000E0910406F09105060488F589E02DEFCFEB
:1029100085E2689FB001112465507D4FE091040667
:10292000F09105060688F789E02DE1CF85E2689FE2
:10293000B001112465507D4FE0910406F091050629
:10294000008CF18DE02DD3CF85E2689FB00111247A
:1029500065507D4FE0910406F0910506028CF38DE1
:10296000E02DC5CFCE0143DCB1CFCE014BDCAECFE5
:10297000CE0153DCABCFCE01E8DCA8CFCE01AFDD7A
:10298000A5CFCE010DDDA2CF84E492E07CD79ECF0F
:10299000EF92FF920F931F93CF93DF93EC01888107
:1029A000811102C082E08883088180E0043108F050
:1029B0004DC0E02EF12C61E070E0CE0178D785E2C9
:1029C0008E9DF0018F9DF00D1124E550FD4F80810B
:1029D000813009F042C082EB9DE05AD7E881F0E0F7
:1029E000E656F84F8581882309F444C08FE89DE0BE
:1029F0004FD715E21E9DF0011F9DF00D1124E550EB
:102A0000FD4F80818823F1F087E79DE041D7019F4A
:102A10008001112462E070E0C80184509D4F47D7C7
:102A20008AE69DE035D762E070E0C80182509D4F94
:102A30003ED781E69DE02CD761E070E0C801805070
:102A40009D4F35D788818F5F888381E0DF91CF915B
:102A50001F910F91FF90EF900895823019F488EA4A
:102A60009DE0BBCF843019F482EA9DE0B6CF8CE9BB
:102A70009DE0B3CF83E89DE0BBCF91E0811190E072
:102A800090939B07089591E0811190E090939C07AB
:102A9000089591E0811190E090939D07089591E051
:102AA000811190E090939E070895CF93DF930F924A
:102AB000CDB7DEB7898390E021E0611120E0FC0111
:102AC000E656F84F258325E2289FF001299FF00D57
:102AD0001124E550FD4F8081823051F484E59DE062
:102AE000D7D661E070E0CE010196E9D68981F8DAA7
:102AF0000F90DF91CF910895CF93C82FC15010F45C
:102B0000CF91089563DC8AE05ADCF8CFCF93DF934E
:102B1000CDB7DEB72C970FB6F894DEBF0FBECDBF92
:102B20009CE0E5EAF2E0DE01119601900D929A95A3
:102B3000E1F78C3080F4E1E0F0E0EC0FFD1FE80FEE
:102B4000F11D80812C960FB6F894DEBF0FBECDBF6D
:102B5000DF91CF91089580E0F5CF1F93CF93DF935E
:102B6000CDB7DEB72A970FB6F894DEBF0FBECDBF44
:102B7000182F85EC91E09A87898788E0E2E6F1E0FA
:102B8000DE01119601900D928A95E1F762E070E006
:102B9000CE0109964DDD111108C086E490E01EDCDF
:102BA00068E070E0CE01019643DD2A960FB6F894F6
:102BB000DEBF0FBECDBFDF91CF911F910895CF93A0
:102BC000DF93CDB7DEB7CF55D1090FB6F894DEBF8E
:102BD0000FBECDBF85EC91E0A0969FAF8EAFA097C2
:102BE00089E0EAE6F1E0DE01AB5ABF4F01900D92B9
:102BF0008A95E1F783E3E3E7F1E0DE0111960190C6
:102C00000D928A95E1F781E2E6EAF1E0DE01D496E1
:102C100001900D928A95E1F784E690E0DFDBD6DB48
:102C200087E090E0DBDB84E067DF83E290E0D6DBE7
:102C300083E062DF8EE090E0D1DB82E05DDF8EE456
:102C400090E0CCDB82E058DF84E090E0C7DB83E0FB
:102C500053DF8BE390E0C2DB82E04EDF62E070E0A6
:102C6000CE01825A9F4FE4DC84E190E0B7DB69E05B
:102C700070E0CE018B5A9F4FDBDC89E390E0AEDB46
:102C800063E370E0CE010196D3DC61E270E0CE0137
:102C9000C496CEDC80E061DF86E490E09FDBC15A21
:102CA000DF4F0FB6F894DEBF0FBECDBFDF91CF91DF
:102CB000089525E0FC01208387EC91E00895CF93EF
:102CC000DF9300D00F92CDB7DEB795EB998390E2FA
:102CD0009A838B8363E070E0CE010196A9DC0F90AC
:102CE0000F900F90DF91CF910895CF93DF9300D095
:102CF0000F92CDB7DEB795EB998390E39A838B83E0
:102D000063E070E0CE01019693DC0F900F900F907E
:102D1000DF91CF910895CF93DF9300D00F92CDB77D
:102D2000DEB795EB998390E19A838B8363E070E043
:102D3000CE0101967DDC0F900F900F90DF91CF9127
:102D400008950F931F93CF93DF9300D00F92CDB7C9
:102D5000DEB78A0195EB99836A838B8363E070E029
:102D6000CE01019665DC85EA89830F770A831F7798
:102D70001B8363E070E0CE0101965ADC0F900F9048
:102D80000F90DF91CF911F910F910895AB0160E4F7
:102D9000D8CFEF92FF920F931F93CF93DF930F92B1
:102DA000CDB7DEB77C018B01FC01818189838091E5
:102DB000FC01EDD5882381F18DEB9FE069D568E0BA
:102DC00070E0C7017CD583EB9FE062D561E070E0E5
:102DD000CE01019674D589EA9FE05AD561E070E092
:102DE000C70102966CD58FE99FE052D561E070E093
:102DF000C701039664D581E99FE04AD562E070E09F
:102E0000C70104965CD583E89FE042D562E070E09C
:102E1000C701069654D5C3D5F7018281F80187838F
:102E2000F7018381F8018087F70186819781F80196
:102E3000948383836581F7018281B7D9F801808FFC
:102E40006581F7018381B1D9F801868FF70184810B
:102E5000958190D9F801928F818FF70186819781B2
:102E60008F3F9F4731F5F801158E148EF801808150
:102E700082FF17C0448D558D60E6898162DFF801BD
:102E8000418D528D6CE589815CDFF801468D50E003
:102E90006CE6898156DFF801408D50E064E6898157
:102EA00050DF0F90DF91CF911F910F91FF90EF9026
:102EB0000895F8018181928123813481821B930BD3
:102EC00059D9F801958F848FD1CFEF92FF920F934C
:102ED0001F93CF93DF930F92CDB7DEB77C018B01A9
:102EE000FC01818189838091FC0151D5882341F1C6
:102EF00084E79FE0CDD465E070E0C701E0D48BE6C5
:102F00009FE0C6D461E070E0CE010196D8D481E69E
:102F10009FE0BED461E070E0C7010296D0D487E59F
:102F20009FE0B6D461E070E0C7010396C8D48DE499
:102F30009FE0AED461E070E0C7010496C0D42FD505
:102F4000F8018385803130F58D3030F1F7018481CF
:102F50009281911129C01FD9F801928B818BF701C1
:102F6000838119D9F801968B858BF801808182FFC6
:102F700013C08981F7019281F801911129C041891B
:102F8000528968E4DEDEF8014589568960E5898169
:102F9000D8DE02C0803129F10F90DF91CF911F91CF
:102FA0000F91FF90EF900895F6D8F801948B838BE2
:102FB000F7018381803831F48FE790E0F801908F3A
:102FC000878BD3CF8195E7D8F801908F878BCDCFB2
:102FD000438954896CE4B5DEF8014789508D64E576
:102FE000D6CFF70184819281911112C0D4D8F80113
:102FF000928B818BF801808182FFCECF8981F7018E
:103000009281F801911109C04189528968E4C0CFC9
:10301000C2D8F801948B838BEDCF438954896CE43B
:10302000B7CFDF92EF92FF920F931F93CF93DF936F
:103030000F92CDB7DEB77C018B01FC0181818983C2
:103040008091FC01A4D4882381F18FE39FE020D4F8
:1030500067E070E0C70133D489E39FE019D461E0F1
:1030600070E0CE0101962BD48CE29FE011D461E098
:1030700070E0C701029623D48FE19FE009D461E09C
:1030800070E0C70103961BD482E19FE001D461E0A8
:1030900070E0C701049613D485E09FE0F9D362E0A5
:1030A00070E0C70105960BD47AD4F7018281F8014C
:1030B00081878FE790E092A381A381E091E094A3C0
:1030C00083A3F7016581768181E0683EF3E07F07A5
:1030D00028F46A30710508F04CC08FE6F801878F3C
:1030E000F8018385823019F08385833081F5F701FB
:1030F00084818052813C08F043C083E0F8018387DB
:103100006581F701828151D8D82EF701838187FD2F
:103110008F5F85958D0D3FD8F80192A381A3F701AC
:10312000838187FD8F5F85958D1935D8F80194A32C
:1031300083A3808182FF0BC041A152A164E78981F2
:1031400000DEF80143A154A168E78981FADDF801A6
:10315000808182FF05C0478D50E060E78981F1DD05
:103160000F90DF91CF911F910F91FF90EF90DF9023
:10317000089588EE93E00E944B21F801678FB0CF4D
:1031800082E0BCCFEF92FF920F931F93CF93DF9318
:103190000F92CDB7DEB77C018B01FC018181898361
:1031A0008091FC01F4D38823C1F081EF9EE070D3BD
:1031B00064E070E0C70183D38BEE9EE069D361E0E9
:1031C00070E0CE0101967BD38EED9EE061D362E08C
:1031D00070E0C701029673D3E2D3F7018281F80150
:1031E0008187F70182819381F801658197FD21C074
:1031F0000E94D510F801838F8FE790E092A381A3FE
:10320000F80114A213A2808182FF0BC0438D50E00D
:1032100064E7898196DDF80141A152A16CE78981BB
:1032200090DD0F90DF91CF911F910F91FF90EF9064
:10323000089580950E94D510F801838F81E091E078
:10324000DDCFEF92FF920F931F93CF93DF930F92F7
:10325000CDB7DEB78C017B018091FC0198D3882328
:1032600019F1F801818189838EEC9EE011D364E02D
:1032700070E0C80124D388EC9EE00AD361E070E0DE
:10328000CE0101961CD38FEB9EE002D361E070E08B
:10329000C801029614D386EB9EE0FAD261E070E09A
:1032A000C80103960CD37BD3F8012281822F022E12
:1032B000000C990B27FF03C0809590959160F70152
:1032C00092A381A3F80183810E94CB10F70194A3FC
:1032D00083A3808182FF0DC041A152A168E7F8015C
:1032E00080812FDDF70143A154A164E7F8018081BB
:1032F00028DD0F90DF91CF911F910F91FF90EF90FC
:103300000895CF92DF92EF92FF920F931F93CF9386
:10331000DF938C01EB01FC0182818B30A0F48830BB
:1033200008F0AFC0EE24E394833090F481110FC015
:103330008BE190E0DF91CF911F910F91FF90EF9083
:10334000DF90CF9008958B3099F79881F2CFE12CE0
:10335000F801F180848590E0880F991F9C01220F6D
:10336000331F222733708F779927822B932B9A8BC9
:10337000898B838194818F3F9F4709F056C01D8EB2
:103380001C8ECD80F801D184CD1469F1DD828F814E
:103390006D2D0E94D510888F8885F80161850E9467
:1033A000D5108E8FEE2009F45DC06D8189850E9455
:1033B000D510182F8E81810F0E94CB109AA389A35C
:1033C0008E81811B0E94CB109CA38BA3888182FFDE
:1033D0000AC049A15AA164E78F2DB3DC4BA15CA1BF
:1033E00068E78F2DAEDC888182FF43C049895A8906
:1033F00068E48F2DA6DC4C8D5D8D60E68F2DA1DC01
:10340000CD1409F495CF4E8D50E06CE68F2D99DCEC
:10341000488D50E064E68F2D94DCE11089CF4B8D10
:1034200050E064E78F2D8DDC83CF8B819C818F3FB3
:103430009F4709F4A4CF29813A818B819C8182170F
:10344000930758F489819A812B813C81821B930BCD
:103450000E94BA109D8F8C8F94CF8D859E859D8FF5
:103460008C8F8FCF8985F80161850E94D5108B8F55
:10347000BACF6BE1CE010A9601D988818460888336
:1034800057CF88818FE055CFDC01FB019FE7938FF9
:1034900081E0878F108E128E118E168E158E148EEF
:1034A00083E282879487108A1786938B84E6848BC5
:1034B000158A80E1868B8EE4878B11968C91813002
:1034C00019F414A213A2089581E091E094A383A3B8
:1034D0000895CF93DF9300D00F92CDB7DEB792EF70
:1034E00099838B83962F9295907F68276F70829532
:1034F0008F7068278DE06827692B6A8363E070E02E
:10350000CE01019695D80F900F900F90DF91CF913B
:103510000895CF93DF93CDB7DEB72C970FB6F8940D
:10352000DEBF0FBECDBF9CE0E2EBF2E0DE01119604
:1035300001900D929A95E1F78C3080F4E1E0F0E093
:10354000EC0FFD1FE80FF11D80812C960FB6F8944B
:10355000DEBF0FBECDBFDF91CF91089580E0F5CFE4
:103560001F93CF93DF93CDB7DEB72A970FB6F894AA
:10357000DEBF0FBECDBF182F83EF9DE19A878987ED
:1035800088E0ECECF1E0DE01119601900D928A9555
:10359000E1F762E070E0CE0109964AD8111105C04A
:1035A00068E070E0CE01019643D82A960FB6F894F1
:1035B000DEBF0FBECDBFDF91CF911F910895CF9396
:1035C000DF93CDB7DEB76A970FB6F894DEBF0FBEB4
:1035D000CDBF83EF9DE19A8F898F88E1E4EDF1E023
:1035E000DE01119601900D928A95E1F784E690E054
:1035F0000E94EE1162E070E0CE01499619D868E1B0
:1036000070E0CE01019614D880E0AADF84E690E055
:103610000E94EE116A960FB6F894DEBF0FBECDBFC2
:10362000DF91CF91089525E0FC01208387EF91E0A1
:10363000089562E04ECF63E04CCF61E04ACFCF9374
:10364000DF9300D000D000D0CDB7DEB791EF9983E3
:1036500090E49B838C836D837E83860F8F50870FCE
:1036600081958F778A8366E070E0CE0101960E9493
:10367000181326960FB6F894DEBF0FBECDBFDF91AC
:10368000CF91089508950895089508950895DC014F
:103690001296EC91E15080E0EB3020F4F0E0E45140
:1036A000FE4F808190E00895DC01FB0180E282877B
:1036B0008FE78487178611969C9111979830C8F4EC
:1036C000923040F190E49787808B838B158A148A1F
:1036D000868B818F8EE3848F11968C91823069F472
:1036E000128A118A8EE69EE1908F878B938F828F4C
:1036F00008959850943060F0089580E090E4928BA3
:10370000818B85E692E1908F878B84E793E0EECF03
:103710008EE7808B08959C0183B5816083BD3093D3
:1037200085002093840081E086BBB09BFECF089586
:103730005E9A81EC9FEFEFDF5E9883E89FEFEBCF1F
:10374000282F9091580680915906982780915A0603
:10375000982780915B069827203131F48091560696
:103760003091570683279827892F82958F70892754
:10377000982F969596958927982F969589272B307F
:1037800019F4909157068927817008951DB880E437
:103790008EB910BA83EF81BB83E085BD95E090932D
:1037A0008100809369008BEC93EFB5DFC1DF8BEC78
:1037B00093EFB1DF6EE780E00E940909B9DF8091E5
:1037C0005D0680915D06813159F480E1B9DF88237F
:1037D00039F083E08093BA0780E00E94271011C07F
:1037E00080915D068C3059F48BE0AADF882339F094
:1037F00084E08093BA0781E00E94271002C0E89815
:10380000D5CFE898F8940895CF938091BA07C0E196
:10381000843009F4CBE06C2F80E00E940909E8981D
:1038200081110CC0809106068F5F809306068B3055
:10383000C0F0F89480E28093D800FFCF1092060683
:103840008C2F7EDF882369F08091BA07843059F489
:1038500086E0E6E5F6E0A3EBB7E001900D928A95ED
:10386000E1F7CF91089586E596E0CF910C944F084B
:103870009C0180910801882329F0F90180812F5F44
:103880003F4FF9CF0895209108012111F1CF0895FC
:1038900020910801222329F0FC01849131968111A5
:1038A000FCCF0895209108012111F2CF0895809155
:1038B0000801882319F06111809108010895809111
:1038C0000801882319F06111809108010895EF9291
:1038D000FF920F931F93CF93DF930F92CDB7DEB775
:1038E00069838A01790120910801222349F0C0DF10
:1038F00061E070E0CE010196DADFB701C801DFDFD9
:103900000F90DF91CF911F910F91FF90EF9008954D
:10391000AF92BF92CF92DF92EF92FF920F931F93DD
:10392000CF93DF937B016A01890120910801222353
:1039300039F0AEDFE6010C0D1D1DC017D10758F0A0
:10394000DF91CF911F910F91FF90EF90DF90CF907B
:10395000BF90AF900895E881F0E0E150F048EE0F9D
:10396000FF1FEE0DFF1DA080B18061E070E0CE0171
:103970009EDF6501DD2481E08A1530F4B6016150D7
:103980007109CE01019693DFCC0DDD1DD6CF982FA6
:1039900020910801282381E0291380E008950895EB
:1039A000982F973020F08093E90081E0089590935C
:1039B000E900242F762F50E0981731F07091EC0039
:1039C0002091ED005091F00021FD02C09F5FE9CFF2
:1039D0003091EB003E7F3093EB003091ED003D7F66
:1039E0003093ED003091EB0031603093EB00709339
:1039F000EC002093ED005093F0002091EE0027FDA5
:103A0000E5CF80E008958091C00787FF13C08091C3
:103A1000E80082FF06C08091E8008B778093E80081
:103A200004C08091BF078111F2CF08958091BF0734
:103A30008823D9F38091E80080FFF8CF8091E800D7
:103A40008E77ECCF2091E4003091E50095E6A90156
:103A50002091EC00822F817020FF06C08091E80049
:103A600080FF06C080E008952091E80022FD1AC082
:103A70008091BF07882389F0853089F08091EB0021
:103A800085FD0FC02091E4003091E50042175307F7
:103A9000F9F29150E1F684E0089582E0089583E020
:103AA000089581E008950F931F93CF93DF9346D03D
:103AB0004DD0C8EDD0E088818F7788838881806879
:103AC000888388818F7D888319BC1092BF071092EC
:103AD000BB071092BD071092BC0700EE10E0F80182
:103AE00080818B7F808388818160888342E060E071
:103AF00080E056DFE1EEF0E080818E7F8083E2EEB1
:103B0000F0E0808181608083808188608083F8011B
:103B100080818E7F8083888180618883DF91CF91CF
:103B20001F910F910895E7EDF0E08081816080831F
:103B300084E082BF81E08093BE07B5CFE8EDF0E07E
:103B400080818E7F80831092E20008951092DA00C7
:103B50001092E10008951F920F920FB60F92112458
:103B60002F933F934F935F936F937F938F939F9385
:103B7000AF93BF93EF93FF938091E10082FF0AC060
:103B80008091E20082FF06C08091E1008B7F8093EC
:103B9000E1006ED38091DA0080FF19C08091D800D7
:103BA00080FF15C08091DA008E7F8093DA008091CB
:103BB000D90080FF51C080E189BD82E189BD09B48F
:103BC00000FEFDCF81E08093BF070E94630B8091D0
:103BD000E10080FF18C08091E20080FF14C0809156
:103BE000E2008E7F8093E2008091E200806180930A
:103BF000E2008091D80080628093D80019BC85E0F3
:103C00008093BF0735D38091E10084FF33C080915A
:103C1000E20084FF2FC080E189BD82E189BD09B443
:103C200000FEFDCF8091D8008F7D8093D8008091D9
:103C3000E1008F7E8093E1008091E2008F7E80938F
:103C4000E2008091E20081608093E2008091BB07F6
:103C5000882341F084E00BC019BC1092BF070E947A
:103C6000650BB5CF8091E30087FDF4CF81E08093B1
:103C7000BF07FED28091E10083FF22C08091E20065
:103C800083FF1EC08091E100877F8093E10082E086
:103C90008093BF071092BB078091E1008E7F8093D5
:103CA000E1008091E2008E7F8093E2008091E2004B
:103CB00080618093E20042E060E080E071DED8D273
:103CC000FF91EF91BF91AF919F918F917F916F91F4
:103CD0005F914F913F912F910F900FBE0F901F90CA
:103CE0001895AF92BF92CF92DF92FF920F931F93DE
:103CF000CF93DF936C01EB018A01A4DEF82E8111D2
:103D000024C00115110539F0F80180819181C81B8B
:103D1000D90BC80ED91EB12CA12C2097B1F08091DF
:103D2000E80085FD22C08091E8008E778093E8004E
:103D3000A0D201151105A1F0F80180819181A80E92
:103D4000B91EB182A08285E0F82E8F2DDF91CF9130
:103D50001F910F91FF90DF90CF90BF90AF9008958B
:103D600071DE8823D1F2F82EF0CFF60181916F0138
:103D70008093F1002197FFEFAF1ABF0ACECFAF9229
:103D8000BF92CF92DF92FF920F931F93CF93DF9357
:103D90006C01EB018A0156DEF82E811124C0011559
:103DA000110539F0F80180819181C81BD90BC80E2B
:103DB000D91EB12CA12C2097B1F08091E80085FD8F
:103DC00022C08091E8008B778093E80052D20115E1
:103DD0001105A1F0F80180819181A80EB91EB18270
:103DE000A08285E0F82E8F2DDF91CF911F910F914A
:103DF000FF90DF90CF90BF90AF90089523DE88238F
:103E0000D1F2F82EF0CF8091F100F60181936F018D
:103E10002197FFEFAF1ABF0ACECFFC01CB01209153
:103E2000C6073091C7072617370790F0009729F487
:103E30002091E8002E772093E80040E0009751F4AD
:103E4000411108C08091E80082FF31C080E00895F0
:103E5000C901F3CF2091BF07222399F1253069F1E1
:103E60002091E80023FD2BC02091E80022FDEACF3D
:103E70002091E80020FFE2CF3091F3002091F20082
:103E8000009719F02830310558F041E0283031050D
:103E900009F040E02091E8002E772093E800CECF93
:103EA00041914093F10001972F5F3F4FE9CF8091FF
:103EB000BF07882331F0853029F683E0089581E03B
:103EC000089582E00895FC01CB01009729F4209128
:103ED000E8002B772093E800009731F48091E80008
:103EE00080FF1CC080E008952091BF07222301F1CC
:103EF0002530D1F02091E80023FD18C02091E80082
:103F000022FFEACF3091F3002091F200232BF9F247
:103F10002091F10021930197A9F7D9CF8091BF0794
:103F2000882331F08530D1F683E0089581E008954B
:103F300082E00895FC01CB012091C6073091C707AC
:103F40002617370790F0009729F42091E8002E7784
:103F50002093E80040E0009751F4411108C080919F
:103F6000E80082FF32C080E00895C901F3CF2091BC
:103F7000BF072223A1F1253071F12091E80023FD34
:103F80002CC02091E80022FDEACF2091E80020FF1C
:103F9000E2CF3091F3002091F200009719F0283021
:103FA000310558F041E02830310509F040E020911A
:103FB000E8002E772093E800CECF44914093F100A3
:103FC000319601972F5F3F4FE8CF8091BF0788233D
:103FD00031F0853021F683E0089581E0089582E094
:103FE00008950F931F93CF93DF93CDB7DEB7AA97B2
:103FF0000FB6F894DEBF0FBECDBF80EC97E0FC019A
:1040000001962091F100208327E0883C9207B9F7C0
:104010000E94990B8091E80083FF11C18091C00735
:104020009091C1079A3008F00AC1E92FF0E0ED54F1
:10403000FE4D61C1803881F0823809F000C1809165
:10404000C4078F708093E9008091EB0085FB88277F
:1040500080F91092E90006C08091BC079091BD07DD
:10406000911182609091E800977F9093E80080938F
:10407000F1001092F1008091E8008E77DDC0882376
:1040800009F4CBC0823009F0DAC08091C2078111F7
:10409000CEC08091C4078F7009F4D1C08093E9002D
:1040A0002091EB0020FFC3C0933031F48091EB00EE
:1040B00080628093EB00BBC09091EB009061909385
:1040C000EB0021E030E001C0220F8A95EAF720934F
:1040D000EA001092EA008091EB008860EACF81113B
:1040E000AEC01091C2071F770FB7F8948091E80017
:1040F000877F8093E80087DC8091E80080FFFCCF19
:104100008091E3008078812B8093E3008068809326
:10411000E30082E0111183E08093BF070FBF8FC0DF
:104120008058823008F08BC08091C2079091C307FD
:104130008C3D23E0920799F583E08A838AE28983A4
:104140004FB7F894DE01139620E03EE051E2E32FF2
:10415000F0E050935700E49120FF03C0E295EF7028
:104160003F5FEF708E2F90E0EA30B8F0C7968D93E6
:104170009D932F5F243159F74FBF8091E800877FCF
:104180008093E8006AE270E0CE01019646DE8091FD
:10419000E8008B778093E80052C0C096E8CFAE016C
:1041A0004F5F5F4F6091C4070E948C0ABC01892B4E
:1041B00009F445C08091E800877F8093E8008981F9
:1041C0009A81B8DEE4CF8038D1F58091E800877F0E
:1041D0008093E8008091BB078093F1004CCF811160
:1041E0002EC09091C207923050F58091E800877FF1
:1041F0008093E8009093BB0706DC8091BB0788237F
:1042000011F084E005C08091E30087FDFACF81E0E2
:104210008093BF070E94670B12C08091C207813054
:1042200071F481E0933009F080E08093BD07109233
:10423000E9008091E800877F8093E800E4DB8091CB
:10424000E80083FF0AC08091EB0080628093EB005E
:104250008091E800877F8093E800AA960FB6F894D3
:10426000DEBF0FBECDBFDF91CF911F910F9108959B
:104270000895CF938091BF07882359F0C091E9003A
:10428000CF701092E9008091E80083FDAADEC09310
:10429000E900CF910895AA1BBB1B51E107C0AA1FDB
:1042A000BB1FA617B70710F0A61BB70B881F991FD7
:1042B0005A95A9F780959095BC01CD010895052EDA
:1042C00097FB16F400940FD057FD05D01AD007FCC9
:1042D00002D046F408C050954095309521953F4F47
:1042E0004F4F5F4F089590958095709561957F4FE2
:1042F0008F4F9F4F0895EE0FFF1F0590F491E02D13
:104300000994A1E21A2EAA1BBB1BFD010DC0AA1F16
:10431000BB1FEE1FFF1FA217B307E407F50720F02E
:10432000A21BB30BE40BF50B661F771F881F991FA9
:104330001A9469F760957095809590959B01AC01F2
:10434000BD01CF010895F894FFCF64146A147A1464
:1043500088149614A414B214B5146614B814BB14BB
:10436000BE14C114C4141A203F201F213F201F2156
:0A4370006F2090201F21E320EF20B2
:10437A00000000000000080202FF0E00080005000D
:10438A000700040004000F000300000004000200FC
:10439A00020002000500DF155916AD1586155F16D5
:1043AA0075168B16C616441AC91665171118C2183F
:1043BA0021198119DF1A131BB01A891A191B1B1B21
:1043CA001D1B1F1B541B421B431B441B451B461B27
:1043DA00471BB57C7FA57F00C506F000010A0110C6
:1043EA00056BF7B5407FA57257B5447FA53C43B529
:1043FA00487FA57E00B54C7FA50400B5507FA50275
:10440A0000B5547FA50200B5587FA5007EB55C7F34
:10441A00A53C00B5607FA51465B5647FA57E6BB524
:10442A00687FA53600B56C7FA52800B5707FA566A4
:10443A004CB5747FA57E01F000010A01F11040001D
:10444A007F00F36AF10E4301007DF17E04013E4EC6
:10445A00F11C45013E2FF10B46017D000F1313138A
:10446A0013131307070707F000010A1504020100D6
:10447A004765745265706F72740053657452657043
:10448A006F72740053657420437573746F6D2046A0
:10449A006F72636520446174610053657420446FD0
:1044AA00776E6C6F616420466F7263652053616D2D
:1044BA00706C650053657420437573746F6D204684
:1044CA006F72636500557362203C3D0044697361F5
:1044DA00626C65204163747561746F727300456E16
:1044EA0061626C65204163747561746F7273005305
:1044FA00746F7020416C6C20456666656374730046
:10450A00526573657400506175736500436F6E740C
:10451A00696E75650012060502080A0B0D0E0F106A
:0E452A0001000605030204050508090A0B003E
:00000001FF
